:020000040800F2
:10000000380C002049560008495500084B55000897
:100010004D5500084F55000851550008715600080D
:100020000000000000000000000000005355000820
:1000300055550008000000005755000859550008A4
:1000400075560008795600087D560008815600084C
:1000500085560008895600088D56000891560008FC
:1000600095560008995600089D560008A1560008AC
:10007000A5560008A9560008AD560008B15600085C
:10008000B5560008B9560008BD560008C15600080C
:10009000C5560008C9560008CD560008D1560008BC
:1000A000D5560008D9560008DD560008E15600086C
:1000B000E5560008E9560008ED560008F15600081C
:1000C000F5560008F9560008FD56000801570008CB
:1000D00005570008095700080D5700081157000878
:1000E00015570008195700081D5700082157000828
:1000F00025570008295700082D57000831570008D8
:10010000355700085B550008395700083D5700086F
:100110004157000845570008495700084D57000847
:100120005157000855570008595700085D570008F7
:100130006157000865570008695700086D570008A7
:100140007157000875570008795700087D57000857
:100150008157000885570008895700088D57000807
:1001600091570008615500089557000899570008F5
:100170009D570008A1570008A5570008A957000877
:10018000AD570008B1570008B5570008B957000827
:10019000BD570008C1570008C5570008C9570008D7
:1001A000CD570008D1570008D5570008D957000887
:1001B000DD570008E1570008E5570008E957000837
:1001C000ED570008F1570008F5570008F9570008E7
:1001D000FD57000801580008055800080958000894
:1001E0000D580008115800087155000815580008EE
:1001F000195800081D580008215800082558000803
:10020000295800082D5800083158000835580008B2
:10021000395800083D580008415800084558000862
:10022000495800084D580008515800085558000812
:10023000595800085D5800082DE9F84F8046D8E964
:1002400000010024A246DFF85457C30706D52E68E4
:10025000D8F85020B60842EA86062E60830706D5F5
:100260002E68D8F8542026F00C0616432E6043075B
:1002700006D52E68D8F8582026F0300616432E6092
:10028000030706D52E68D8F85C2026F0C006164372
:100290002E60C30606D52E68D8F8602026F4407676
:1002A00016432E60830606D5AE68D8F86420F6089B
:1002B00042EAC606AE60420606D52B68D8F868202A
:1002C00023F4406313432B60030606D52E68D8F849
:1002D0006C2026F4405616432E60C30506D5AE6842
:1002E000D8F8702026F0C0061643AE60420206D54C
:1002F0002B68D8F8742023F4404313432B60830504
:1003000006D5AE68D8F8782026F440661643AE606D
:10031000420506D52B68D8F87C2023F440231343EC
:100320002B60030506D5AE68D8F8802026F4407609
:100330001643AE6008F18406DFF8647681041DD5AB
:10034000F06858B1202814D0402804D0602818BF85
:10035000802806D010E000F0AEF903E000F0B4F918
:10036000044654B96968F06821F0E001014369600E
:1003700004E000F0A5F9F3E70124A246D8E9000162
:10038000420421D53069B0B1B0F5807F17D0B0F507
:10039000007F06D0B0F5407F18BFB0F5806F02D067
:1003A00010E000F088F974B96968306921F4E061FF
:1003B0000143696008E000F087F90446F3E700F0C4
:1003C0007FF9FAE70124A246D8E9000102041ED50C
:1003D000706A002818BFB0F5805F0ED0B0F5005FDE
:1003E00008D0B0F5405F1CBFB0F5804FB0F5A04F0E
:1003F00003D00AE000F068F904463CB9A968706AC5
:1004000021F4E0410143A96001E00124A246D8E9BA
:100410000001C20317D57068042812D8DFE800F085
:1004200005030D05050000F046F95CB969687068C0
:10043000C90840EAC101696005E000F041F90446DD
:10044000F3E70124A246D8E9000182031ED5B06873
:1004500070B1B0F5803F09D0B0F5003F10D0B0F5D5
:10046000403F18BFB0F5802F02D00DE000F023F917
:100470005CB9A968B06821F4E0210143A96005E0F6
:1004800000F01EF90446F3E70124A246D8E9000172
:1004900042032DD5F86E4FF0000941070AD4F86EDB
:1004A0004FF0010940F00400F866F86E00F0040017
:1004B00000900098DFF8EC1408680A4640F001004C
:1004C000106000F0F5FE8346DFF8D8040168CA0723
:1004D0002AD400F0EDFEA0EB0B000328F4D3032494
:1004E000A246B9F1000F03D0F86E20F00400F866C0
:1004F000D8E90001C2024BD5F06960B1B0F1806F5C
:1005000006D0B0F1006F3CD0B0F1406F03D03DE0B9
:1005100000F0DAF80446002C39D12968F06921F09E
:1005200040610143296033E0002CD9D1286910F4DF
:1005300040701CBFF16B88420BD02869296941F4D7
:1005400080312961296920F4407021F480312961CA
:100550002861C0070ED500F0ABFE834628698107ED
:1005600008D400F0A5FEA0EB0B0041F289318842CF
:10057000F4D3B4E72969F06B21F440710143296198
:10058000AFE7396841F400313960C4E70124A2467D
:10059000D8E90001020309D5726913001CBFB2F546
:1005A000805FB2F5005F50D00124A246C20405D599
:1005B0006B68B26923F4006313436B6082020DD54C
:1005C000336AB3F5804F03D13A6842F480323A601F
:1005D0006B68326A23F4804313436B60020205D5D3
:1005E0002B68326B23F4401313432B60C30108D5EF
:1005F000D5F800C0726B2CF4403142EA010CC5F80A
:1006000000C0830108D5D5F808C0B26B2CF01801E2
:1006100042EA010CC5F808C040011FD5F16AB1F5E6
:10062000001F03D1386840F400303860F06AB0F53C
:10063000401F02D100F048F8044674B96968F06AB6
:1006400021F440110143696008E0002CADD16B68D2
:1006500023F440531A436A60A8E7A246D8E9000190
:1006600002011AD5306850B1B0F1807F03D0B0F1EB
:10067000007F0CD00FE0396841F4003139605CB97B
:100680002968306821F040710143296005E000F0DD
:100690001BF80446F3E70124A246D8E90001C20092
:1006A00005D5A968B06A21F400410143A9605FFA49
:1006B0008AF0BDE8F28F396841F4803139607047C3
:1006C00008F12C0000F066BD08F1080000F01EBD26
:1006D00030B5DFF8143AD96A1C6A00F0D5F8196A07
:1006E0001A6AC2F300151A6B00F0D3F839D000F083
:1006F000F2F804D00ED3032C08D00BD206E01C680D
:1007000025024EBF1A681268120409E0D96A00F087
:10071000CDF807E01C6825024EBF1A681268120463
:1007200000F07CF8196ACA0303D5D96A00F09DF875
:1007300001E0DFED970AC0ED000A196A8A0305D5CA
:10074000D96A00F066F800F094F801E0DFED900A55
:10075000C0ED010A196A4A0306D5D96A00F076F895
:1007600004E00160002242609FED890A4EE0000033
:1007700030B5DFF87439596B5C6A00F085F8596A56
:100780005A6AC2F300159A6B00F083F839D000F072
:10079000A2F804D00ED3032C08D00BD206E01C68BC
:1007A00025024EBF1A681268120409E0596B00F066
:1007B0007DF807E01C6825024EBF1A681268120413
:1007C00000F02CF8596ACA0303D5596B00F04DF8B4
:1007D00001E0DFED6F0AC0ED000A596A8A0305D512
:1007E000596B00F016F800F044F801E0DFED680AFC
:1007F000C0ED010A596A4A0306D5596B00F026F884
:1008000004E00160002242609FED610A80ED020A6F
:1008100030BDB7EE001AC1F30641704702F07042D6
:10082000120F01EB8201B8EE400A9FED5A2AD1ED7A
:10083000001A00EE820AF8EE611AF7EE000A81EE65
:10084000811A70EE200A21EE200A7047B7EE001AD6
:10085000C1F3066100EE901AF8EE600A70EE810AAC
:1008600080EE200ABCEEC00A7047B7EE001AC1F352
:10087000462100EE901AF8EE600A70EE810AC0EE92
:10088000200AFCEEE00A7047C1F3080100EE101ADE
:100890007047C1F30321491CC2F3CC02554300EE5B
:1008A000905AF8EE600A0029704700009FED3A0A5E
:1008B00080EE010AC1F3080101EE101AB8EE411AE8
:1008C000DFED341A00EEA11AF7EE000A71EE200AED
:1008D00020EE200A704701EE101A04F00304B8EE6F
:1008E000411ADFF80818DFF80828012C70470000CB
:1008F00030B5DFF8F437D96B9C6AFFF7C5FF996A0A
:100900009A6AC2F300151A6CFFF7C3FF39D0FFF7DC
:10091000E2FF04D00ED3032C08D00BD206E01C68F3
:1009200025024EBF1A681268120409E0D96BFFF75E
:10093000BDFF07E01C6825024EBF1A68126812044A
:10094000FFF76CFF996ACA0303D5D96BFFF78DFFD8
:1009500001E0DFED0F0AC0ED000A996A8A0305D5B0
:10096000D96BFFF756FFFFF784FF01E0DFED080AC0
:10097000C0ED010A996A4A0306D5D96BFFF766FFF5
:1009800004E00160002242609FED010A3EE70000A2
:1009900000000000000000390024744BE00C024607
:1009A000280C024628080246F0B589B0DFF8442733
:1009B000DFF844374FF4FA44002908BFB0F5802F20
:1009C00019D11069116900F440708D0703D5B0F595
:1009D000807F00F04A8311690D0103D5B0F5007FD7
:1009E00000F04C8319688A0331D5B0F5407F2ED1D1
:1009F000DFF8080768E3DFF808C7002908BFB0F58B
:100A0000005F0CD1506810F0E00010D020281FD0FB
:100A1000402813D0602815D0802818D11DE0002967
:100A200008BFB0F5804F1CD1506810F4E06000F0B2
:100A30007882B0F5807F0BD0B0F5007F00F0618147
:100A4000B0F5407F00F06A81B0F5806F05D03AE3E1
:100A500003A8FFF74DFF039836E318684105F6D564
:100A60002FE3002908BFB0F5805F10D150681968E6
:100A700000F400604A0501D50028F1D019684A0544
:100A8000E5D5B0F5006FE2D1DFF878061CE3DFF8BA
:100A900078E6DFF85856002908BFB0F5801F16D158
:100AA000106810F040602BD0B0F1806F1ED0B0F114
:100AB000006F1FD0B0F1406F21D1186881061ED59C
:100AC000986801024EBF986850690004BAE2002994
:100AD00008BFB0F5001F25D1506810F480401DD12B
:100AE000106810F040600BD0B0F1806F00F094827D
:100AF000B0F1006F00F09582B0F1406F04D0E2E2F7
:100B000018688104FBD5CBE218688106F7D5986890
:100B100001024EBF98685069000493E2B0F5804F1F
:100B20008CD0D0E201260027B94208BFB04210D1D4
:100B3000106810F0030000F00C82012868D01968DA
:100B40004B0501D5022826D011698A07E9D503286B
:100B5000CFE1002908BF02280FD1106810F00C0067
:100B60003BD0042854D019684B0501D5082812D071
:100B700011698A07D5D50C28BBE1002908BF0428D4
:100B800010D1106810F0300027D0102840D019681C
:100B90004B0502D5202800F0948211698A07C0D540
:100BA0003028A6E1002908BF08280FD1106810F0EE
:100BB000C00012D040282BD019684B0501D58028E1
:100BC0006DD011698A07ACD5C02892E1002908BF11
:100BD000102813D1106810F4407000F0DB81B0F5DC
:100BE000807F15D019684B0502D5B0F5007F56D02F
:100BF00011698A0795D5B0F5407F7AE1002908BFD1
:100C000020281ED1906810F0070000F0E181012833
:100C100000F00C8219684C0501D502283FD01169FB
:100C20008C0702D5032800F0208219688C0667D54E
:100C3000042865D1986801024EBF98685069000485
:100C400000E2002908BFB0F5004F29D1906800F4F8
:100C5000E040B0F5805FDBD0B0F5005F04D16846BE
:100C6000FFF786FD02982FE2002854D0B0F5A04F80
:100C700009D11868810643D5986801024EBF98686B
:100C800050690004DEE119688A0302D5B0F5405FBF
:100C900005D019684A0533D5B0F5804F30D110E240
:100CA000002908BFB0F5803F15D1506800F007005B
:100CB000042825D8DFE810F02F0025002A00320094
:100CC0000500186881061BD5986801024EBF986818
:100CD00050690004B6E1002908BFB0F5003F2AD1F1
:100CE000906810F4E02016D0B0F5803F09D0B0F540
:100CF000003F0BD0B0F5403F10D0B0F5802F10D0A2
:100D0000E1E106A8FFF7E4FC0698DDE103A8FFF7A0
:100D1000EFFD0498D8E101F039F8D5E14BF68030C9
:100D2000D2E118688106EBD5986801024EBF986839
:100D30005069000486E1002908BF402819D11068D5
:100D400010F440601CD0B0F5806F57D019684C0586
:100D500002D5B0F5006FA2D019688C06D0D5B0F5D9
:100D6000406FCDD1986801024EBF98685069000469
:100D700068E1002908BF80281AD1106810F440509B
:100D800000F00881B0F5805F38D019684C0502D5B5
:100D9000B0F5005F65D019688C06B1D5B0F5405F3D
:100DA000AED1986801024EBF98685069000449E1CD
:100DB000002908BFB0F5807F15D1906810F0C00001
:100DC00000F00681402819D0802800F00481C02856
:100DD00096D11868810693D5986801024EBF98682D
:100DE000506900042EE1002908BFB0F5800F1AD128
:100DF000106810F4404069D0B0F5804F00F01681C3
:100E000019684C0502D5B0F5004F2AD019688C0638
:100E100071D5B0F5404F6ED1986801024EBF986809
:100E2000506900040EE1002908BFB0F5006F20D121
:100E3000906810F4407009D1186881065BD59868F5
:100E400001024EBF986850690004FBE011690D0172
:100E500002D5B0F5807F3FD019684B0503D5B0F5BA
:100E6000007F00F02E8111698A0744D5B0F5407FDC
:100E70003FE0002908BFB0F5007F1FD1906810F453
:100E8000406009D11868810635D5986801024EBFC7
:100E9000986850690004D5E011690D0102D5B0F5DC
:100EA000806F19D019684B0502D5B0F5006FD8D006
:100EB00011698A071FD5B0F5406F1AE0002908BFF5
:100EC000B0F5806F18D1106810F4402062D011691D
:100ED0000D0103D5B0F5802F00F0D08019684B05C7
:100EE00002D5B0F5002FBCD011698A0703D5B0F543
:100EF000402F00F0BA80E6E04FF00066B94208BF2C
:100F0000B04213D11068196800F040708A0301D50F
:100F1000002863D0B0F1807F00F08380B0F1007FC3
:100F2000E9D16846FFF724FC0098CDE0002908BF0E
:100F3000B0F5000F1AD1106810F4401009D0B0F5C8
:100F4000801F73D0B0F5001F45D0B0F5401F03D00F
:100F5000B9E000F031FFB7E018688106F8D598686D
:100F600001024EBF9868506900046BE04FF0807634
:100F7000B94208BFB0421AD1106810F4403009D00D
:100F8000B0F5803F52D0B0F5003F24D0B0F5403FDF
:100F900003D098E000F007FF96E018688106F8D5C6
:100FA000986801024EBF9868506900044AE04FF00B
:100FB0000076B94208BFB0421BD1906810F018000B
:100FC00006D0082832D0102805D0182807D07AE09B
:100FD00000F0FBFE78E01868410574D571E01868F0
:100FE000810670D5986801024EBF98685069000468
:100FF00028E04FF08066B94208BFB04228D150685F
:1010000010F4401012D0B0F5801F12D0B0F5001FC0
:1010100007D0B0F5401F56D16846FFF7A9FB0198ED
:1010200052E006A8FFF754FB07984DE000F036FEAB
:101030004AE01868810646D5986801024EBF986854
:101040005069000400F07060000E55F820003BE08D
:101050004FF08056B94208BFB04215D1906811696F
:1010600000F400408B0703D510B94FF400402BE08B
:1010700011690B0127D5B0F5004F24D11069C100CB
:1010800054BF2046FA201FE0002908BFB0F5002F0A
:1010900019D15068196800F440508A0402D508B983
:1010A000704611E019688A0405D5B0F5805F08BF65
:1010B000DFF8900108D019684A0504D5B0F5005F43
:1010C00001D1604600E0002009B0F0BD216841F088
:1010D0008061216000F0ECB8074C206820F080604F
:1010E000206000F0E5B80000080C0246D05400086B
:1010F000F40C0246E00C0246000C024620A1070058
:101100000024F40000127A00006CDC0270B5054681
:10111000FFF7E2FF06462068010106D500F0C8F897
:10112000801B0328F7D3032070BDE06A00F080F82D
:10113000E062E06B00F08EF8E063E06AA96920F0FD
:101140000C000843E062E06A296A0843E06200F0AC
:1011500011F8E96900F014F8FFF7B8FF05462068B8
:10116000010105D400F0A4F8401B0328F7D3DAE707
:10117000002070BDE06A20F01000E062206C704733
:101180006FF3CF0040EAC1002064E06A40F0100035
:10119000E062704770B5054600F045F8FFF7A0FF24
:1011A00006462068810006D500F082F8801B0328DF
:1011B000F7D3032070BD206B00F03AF82063606C19
:1011C00000F048F86064206BA96920F00C00084327
:1011D0002063206B296A0843206300F014F8E96952
:1011E00000F017F8216841F08051FFF772FF0546C3
:1011F0002068810005D400F05BF8401B0328F7D37A
:10120000D7E7002070BD206B20F010002063A06C99
:1012100070476FF3CF0040EAC100A064206B40F03C
:101220001000206370470A4C206820F080507047FF
:101230002A686B680449084010435B1E40EA03209B
:101240000249704700366E01FCF0FFFF000080800D
:10125000000C0246AA68521E0840E968C2F3080260
:101260001043491E490201F47E4108432969491E81
:10127000090401F4FE0108436969491E090601F0E9
:10128000FE41084370470EE002684368024408309C
:101290005FEAC37C44BF4B445B1E52F804CB43F867
:1012A00004CB091FF9D150F8041B0029ECD1704779
:1012B00001484068704700BF000000202DE9F84F4A
:1012C00005004FF0000800F05583DFF8CC79FC6989
:1012D000D7F82890287804F00C0409F00309DFF807
:1012E000006BC10672D524B10C2C08BFB9F1010FF7
:1012F00054D1E869002875D0B86801024EBFB968BA
:10130000316E0904686A01F0704181421DD21CB936
:1013100000F08EFD002835D100F067FB02D300F00D
:101320005EFB31E0B1F1004F02D300F052FB0AE066
:1013300000F04BFB27BF21F4F84141EA802121F462
:10134000782141EAC031F9601EE000F04EFB02D383
:1013500000F045FB11E0B1F1004F02D300F039FB82
:101360000AE000F032FB27BF21F4F84141EA802176
:1013700021F4782141EAC031F9602CB9686A00F0A3
:1013800057FD002840F0F68200F000FDDFF8540A17
:10139000006800F0B9FD010018D0BDE2E86900283E
:1013A00064D0396841F0010100F03BFB82463868A7
:1013B000410706D4FFF77CFF00F03CFCF7D3032085
:1013C000AAE200F012FB3ED300F009FB2878C10727
:1013D0000AD5082C04D00C2C08BFB9F1030F54D146
:1013E0006868002800F0C6822978880711D5042C87
:1013F00005D00C2C08BFB9F1020F40F08980E868D5
:101400000028EFD03869296920F4F81040EA01403B
:1014100038612878DFF8109A010740F1E7803068DA
:10142000002400F0F1FA00F0C6FA04D400F0FFFA4C
:10143000824600F0C0FA00F18D80FFF739FF00F01E
:10144000F9FBF6D3BBE7B1F1004F03D300F0C1FACB
:10145000F960BBE700F0B9FA39BF21F4782141EA1D
:10146000C03121F4F84141EA8021F1E738684008B1
:10147000400000F0D9FA824638684107A6D5FFF748
:1014800017FF00F0D7FBF7D399E76868B0F5803F06
:101490000FD0B0F5A02F04D100F091FA21F4801103
:1014A00006E0B0F5A81F09D100F089FA41F48011D7
:1014B0003960386840F4803038600BE0396821F4D6
:1014C00080313960386820F480203860396821F430
:1014D00080113960686868B1FFF7EAFE82463868B3
:1014E00081033FF581AFFFF7E3FEA0EB0A0065281B
:1014F000F5D364E7FFF7DCFE8246386881037FF5A9
:1015000073AFFFF7D5FEA0EB0A006528F5D356E7C9
:10151000E86878B1396841F4807100F082FA0446D5
:10152000386841053FF56EAFFFF7C2FE001B032888
:10153000F6D344E7386820F4807000F075FA04466A
:10154000386841057FF565AFFFF7B2FE001B032841
:10155000F6D334E768690028F06D34D0A96900F04B
:10156000805291421ED000F04063B3F1006F00F052
:101570000182400110D5F16D21F0A051F165FFF716
:1015800097FE8246F06D010106D5FFF791FEA0EBB4
:101590000A000628F6D312E7F16DA86921F0805100
:1015A0000143F165F06D40F08060F065FFF780FE6B
:1015B0008246F06D010116D4FFF77AFEA0EB0A0017
:1015C0000628F6D3FBE620F0A050F065FFF770FE8A
:1015D0008246F06D010106D5FFF76AFEA0EB0A0016
:1015E0000628F6D3EBE60CB100F028FB2978480773
:1015F00071D531680024480709D43168012441F0CD
:1016000004013160306800F004000090009800F0A0
:10161000D2F90BD400F00BFA824600F0CCF905D4D5
:10162000FFF746FE00F006FBF7D3C8E6A868C1073F
:1016300009D5400703D5F16D41F00401F165F06D66
:1016400040F0010006E0F06D40084000F065F06DEC
:1016500020F00400F065A86841F2893A38B3FFF73A
:1016600027FE8346F06D810705D4FFF721FE00F0C9
:101670009EF9F7D3A3E6287A0106F06D0BD540F06A
:101680008000F065F06D010522D4FFF711FE00F037
:101690008EF9F7D393E620F08000F065F06D010538
:1016A00016D5FFF705FE00F082F9F7D387E6FFF7BE
:1016B000FFFD8346F06D810705D5FFF7F9FD00F0CA
:1016C00076F9F7D37BE6F06D010648BFF06DE2D402
:1016D0000CB100F0B3FA29788A061FD5E86A70B118
:1016E000396841F4805100F09CF90446386881045F
:1016F00014D4FFF7DDFD001B0328F7D35FE638683D
:1017000020F4805000F090F904463868810405D533
:10171000FFF7CEFD001B0328F7D350E6287801061B
:101720001FD5286B70B1396841F4804100F079F918
:1017300004463868010414D4FFF7BAFD001B0328DF
:10174000F7D33CE6386820F4804000F06DF9044699
:101750003868010405D5FFF7ABFD001B0328F7D35C
:101760002DE62878410644D5686B002832D0B86849
:1017700040F40000B860B968A86A21F070610143C4
:10178000B960696A286AB1F1404F02D300F027F9C5
:1017900011E0B1F1004F02D300F01BF90AE000F0B4
:1017A00014F927BF21F4F84141EA802121F478217E
:1017B00041EAC031F960386840F0100000F034F9B7
:1017C00004463868810614D4FFF772FD001B032815
:1017D000F7D3F4E5386820F0100000F025F904464E
:1017E0003868810605D5FFF763FD001B0328F7D392
:1017F000E5E5A86B002800F08E80F969002401F06F
:101800000C010C2900F08A800228386820F08070D2
:1018100038606FD1FFF74CFD82463868810105D5ED
:10182000FFF746FD00F006FAF7D3C8E5306800F090
:10183000EBF8D9F80010480348BF4FF00108D9F879
:101840000000DFF8881620F48020C9F80000BA6A8A
:10185000E86B0A40296C0243686C491E42EA012287
:101860000243BA62796BAA6CDFF864060140E86C47
:10187000521EC2F30802401E4002114300F47E4093
:101880000143286D401E000400F4FE000143686D12
:10189000401E000600F0FE4001437963B86A20F064
:1018A0001000B86200F07CF8B862B96AA86D21F047
:1018B0000C010143B962B8F1000F05D0D9F800005E
:1018C00040F48020C9F800000CB100F0B7F9B86A04
:1018D00040F48020B862396841F0807100F0A1F8CE
:1018E00004463868810116D4FFF7E2FC001B032888
:1018F000F7D364E5FFF7DCFC04463868810105D5C1
:10190000FFF7D6FC001B0328F7D358E5B86ADFF8C9
:10191000C4150840B8620020BDE8F28FBA6A796B3E
:10192000012827D0EB6B02F00300984201BFC2F3FD
:101930000320401C2B6C98421CD1686C02F470424E
:10194000824201BFC1F30802521CA86C824211D12D
:10195000EA6CC1F34620401C904201BFC1F306402F
:10196000401C2A6D904205D1C1F30660696D401C90
:10197000884201D00120CFE7B86BE96DC0F3CC00FD
:101980008842C8D0B86A20F01000B862FFF790FC17
:101990000446FFF78DFC001BFBD000F001F8B9E70F
:1019A000E86DC000B863B86A40F010007047A0EB63
:1019B0000B0050457047D9F81C00C10770473868C4
:1019C00040F48020386039687047B1F1804FF96881
:1019D0007047F96821F4787141EA40117047F9685D
:1019E000490940EA4110F8607047B86840F40000C7
:1019F000B860B968686A21F070410143B960696AEA
:101A0000286AB1F1404F7047410709D4306801247A
:101A100040F004003060316801F00401009100984A
:101A200070473960FFF744BC3860FFF741BCD9F814
:101A30001C0040F00100C9F81C00FFF739BC2DE97B
:101A4000F84F04006ED0934D2868894600F00F00CF
:101A5000484502D200F014F964D120788E4FC106B7
:101A600006D56069796A01F07001814200F0F9F8E9
:101A70002078010704D500F0D7F8814200F0F8F88B
:101A80002078410706D5E068396A01F0700181428B
:101A900000F0E0F82078810706D5A068396A01F0E7
:101AA0000F01814200F0CFF82078C10779D5606836
:101AB0004FF0000803282BD1DFF82463306841077A
:101AC0000AD430684FF0010840F0040030603168FB
:101AD00001F0040100910098FFF7EAFB8246DFF86D
:101AE00048B3DBF8000041030AD5DBF800004104ED
:101AF00006D4FFF7DDFB00F09DF8F6D3032091E05C
:101B0000B8F1000F01D000F099F83968880108E0B9
:101B1000022802D13868810303E00028386802D126
:101B2000410702D44FE041054DD5FA69606841F2A2
:101B30008938920840EA8202FA61FFF7B9FB06464B
:101B4000606803280AD1F86900F00C000C2828D03E
:101B5000FFF7AEFB801B4045F5D3CFE702280AD143
:101B6000F86900F00C0008281BD0FFF7A1FB801BD0
:101B70004045F5D3C2E748B9F86910F00C0F10D012
:101B8000FFF796FB801B4045F6D3B7E7F86900F0F6
:101B90000C00042805D0FFF78BFB801B4045F5D3D4
:101BA000ACE72078810706D5A068396A01F00F01FB
:101BB000884200F048F8286800F00F00814504D200
:101BC00000F05EF801D001202CE02078410706D516
:101BD000E068396A01F07001884200F03BF8207833
:101BE000010704D500F020F8884200F041F8207881
:101BF000C10606D56069796A01F07001884200F07B
:101C000030F800F04BF83A6ADFF8CC12694B02F07A
:101C10000F02895CC840186072480068BDE8F24F46
:101C200000F072B9BDE8F28F2069396A090901F044
:101C300070017047A0EB0A0003287047306820F05D
:101C400004003060704704D2396A090940EA011083
:101C50003862704704D2396A21F070010843386253
:101C6000704704D2796A21F07001084378627047A6
:101C700005D2396A21F4E06141EA00113962704706
:101C80002968090949EA01112960286800F00F0054
:101C90004845704700200240000C024610B5DFF8AE
:101CA00040225069136A00219FED5E0A10F00C007B
:101CB00003F0030303D00C2808BF012B11D11368D4
:101CC0001C0204D43A4B1C68C4F3033301E01368CC
:101CD0001B0FDFF8104204EB830393ED000A38B9C1
:101CE0004DE05469804B04F00C04042C1FD11946BC
:101CF0000C2848D1136A106A116AC1F30014116BE1
:101D0000C0F30320401CC1F3CC014C4300EE904AC9
:101D1000F8EE600A002835D001EE100A03F0030344
:101D2000B8EE411A022B06D0032B04D006E0082897
:101D3000DED1194627E09FED3D0A01E0B8EE400AEA
:101D4000D06A80EE010ADFED601AC0F3080001EEF0
:101D5000100AB8EE411AD06A00EEA11AF7EE000A96
:101D600071EE200AC0F3066020EE200A401C00EE4F
:101D7000900AF8EE600A80EE200ABCEEC00A10EE6F
:101D8000101A00E00021084610BD000080B5FFF7E2
:101D900085FF56490968504A064B01F00F01515C16
:101DA000C840186002BD80B5FFF7F0FF4F4A10E051
:101DB000F40C02460C00002080B5FFF7E7FF4B4A09
:101DC00013684B49C3F3022207E080B5FFF7DEFF3B
:101DD000484A13684649C3F30212895CC84002BDF1
:101DE000940C0246080000201F2202603B4A136840
:101DF00003F003034360536803F00F0383605368E9
:101E000003F07003C36053681B0903F070030361A0
:101E1000926802F0700242613748026802F00F02D5
:101E20000A607047000000000C0802460024744B52
:101E300038B50446314D2868410702D500F0E6F870
:101E40000EE0286840F004002860296801F00401D1
:101E50000091009800F0DAF8296821F00401296067
:101E6000B0F5403F18BFB0F5003F02D1B4F1805F3C
:101E70000DE0B4F1805F04D2B0F5803F20D10320A3
:101E800013E01F498C4207D320B91E488442804189
:101E9000C00F0AE0002008E0B4F1805F04D1B0F583
:101EA000803F18BF022000D1012013490A6812099F
:101EB00040EA02120A60096801F00F01814201D074
:101EC000012032BD002032BD00000039FC00FFFFC0
:101ED00000008080FCFFF8FFC05400081C0C024684
:101EE000080C0246D05400080024F400200C0246DE
:101EF00068560008240C024600200240940C02465A
:101F0000010000200100003070B5044688B01C4874
:101F100001681C4D41F010010160006801A900F04A
:101F200010000090009A02A8FFF75EFFFFF73BFF4A
:101F3000154BB0FBF3F015492960401E40F2E73223
:101F400068600021EA602961A960284600F074F801
:101F500006000FD1284600F07CF806000AD1102CAC
:101F600007D200222146312000F0BAFA0848046066
:101F700000E00126312000F0D1FA304608B070BDF3
:101F80009C0C0246EC07002040420F00001000406D
:101F90000800002010B5DFF89020116B01F44031EB
:101FA000814208D1B0F1011F03D3106840F48020B2
:101FB0001060002010BD1168B0F1011F21F4E02174
:101FC00026BF084340F4802008431060DFF85C30EF
:101FD00019684FF47A743220B1FBF4F44FF47A7339
:101FE0004443B4FBF3F1491C084601E060B1401ED4
:101FF00013681C04FAD538B101E029B1491E106BF1
:102000000304FAD50029D4D1032010BDDFF8200045
:10201000006800F440307047DFF81800016841F0B4
:1020200080510160704700000C0802460C0000203F
:102030003C0802461008024638B5040001D10120D0
:1020400032BD00F08DF818B900F073F900F07CFA99
:1020500055E090F83D10012901D001207047022180
:1020600080F83D100168CA6842F00102CA60016848
:10207000DFF8B82091421CBFDFF8B43099422DD070
:10208000B1F1804F18BFB1F1A04F27D0DFF8A420E5
:1020900091421CBFDFF8A03099421FD0DFF89C208E
:1020A00091421CBFDFF89830994217D0DFF8942096
:1020B00091421CBFDFF8903099420FD0DFF88C209E
:1020C00091421CBFDFF88830994207D0DFF88420A6
:1020D00091421CBFDFF88030994209D18A68DFF84D
:1020E0007C101140062918BFB1F5803F05D001686A
:1020F0000A68084642F00102026000207047022090
:1021000068702068211D00F018F901202873012152
:10211000A970E87029716871A971E87129726872F3
:10212000A972E8726970002032BD0000002C0140E5
:10213000002C015000040040000400500008004042
:1021400000080050000C0040000C0050003401401A
:1021500000340150004001400040015007000100E0
:1021600004F13C056878704710B5044620680169A1
:102170008A0715D5C1688A0712D56FF0020101617F
:1021800001222277806910F0030F204602D000F070
:10219000DCF903E000F0DAF900F0C8F8002020775D
:1021A000206801694A0715D5C1684A0712D56FF042
:1021B0000401016102222277806910F4407F2046E9
:1021C00002D000F0C2F903E000F0C0F900F0AEF870
:1021D00000202077206801690A0715D5C1680A0721
:1021E00012D56FF00801016104222277C06910F056
:1021F000030F204602D000F0A8F903E000F0A6F992
:1022000000F094F80020207720680169CA0615D5EF
:10221000C168CA0612D56FF0100101610822227749
:10222000C06910F4407F204602D000F08EF903E030
:1022300000F08CF900F07AF800202077206801691E
:10224000CA0708D5C168CA0705D56FF00101016149
:10225000204600F0DBFB206801690A0608D5C1684A
:102260000A0605D56FF080010161204600F0FEFBF3
:1022700020680169CA0508D5C1680A0605D56FF44A
:1022800080710161204600F0F2FB206801694A0676
:1022900008D5C1684A0605D56FF0400101612046A6
:1022A00000F0E6FB206801698A0608D5C1688A0645
:1022B00005D56FF020010161204600F0DAFB2068AF
:1022C0000169CA0208D5C168CA0205D56FF4801138
:1022D0000161204600F0CEFB206801698A0208D522
:1022E000C1688A0205D56FF400110161204600F033
:1022F000C2FB206801694A0208D5C1684A0205D5B7
:102300006FF480010161204600F0B6FB206801698E
:102310000A020AD5C1680A0207D56FF400010161FB
:102320002046BDE8104000F0A8BB10BD204600F0DC
:10233000A5BB00212970204670472DE9F04FDFF83A
:102340002CB10768DFF82831DFF82841DFF82821B1
:10235000DFF828C1DFF828E1DFF82881DFF82891CD
:10236000DFF828A1DFF82851584518BFA84215D03A
:10237000B0F1804F18BFB0F1A04F0FD0504518BF3B
:1023800048450BD0404518BF704507D0604518BF81
:10239000904203D0A04218BF98421AD127F070068D
:1023A0004F683743584518BFA8422BD0B0F1804F33
:1023B00018BFB0F1A04F25D0504518BF484521D0D7
:1023C000404518BF70451DD060451CBF9042A042DB
:1023D00018D098421CBFDFF8BC20904212D0DFF822
:1023E000B82090421CBFDFF8B42090420AD0DFF83A
:1023F000B02090421FBFDFF8AC209042DFF8A82049
:10240000904203D127F44072CF6817434A6927F0FE
:102410008007174307608F685845C7620A68826261
:1024200018BFA8421BD0A04218BF984217D0DFF8AF
:10243000643098421CBFDFF8602090420FD0DFF874
:102440005C3098421CBFDFF85820904207D0DFF87C
:10245000543098421CBFDFF85020904201D10969E6
:10246000016301224261BDE8F08F0000002C0140B1
:102470000034015000340140000C0050000C0040BA
:102480000008005000080040000400500004004014
:10249000002C015000400140004001500044014028
:1024A0000044015000480140004801500901020069
:1024B00002D42048815470471F4B02F00F021A4487
:1024C00002F8041C70471D4B19684FF6FF0200020A
:1024D000114000F4E0600843194908431860704750
:1024E00070B5164B1C68C4F302230124C3F1070521
:1024F000052D2EBF0F2504FA05F56D1E1E1D072E96
:1025000034BF0023DB1E2940994004FA03F35B1E0D
:102510001A401143BDE87040C8E70000010007D42D
:10252000012200F01F018A40064B400943F8202099
:102530007047000000E400E018ED00E00CED00E062
:102540000000FA0500E100E07047704770470000A6
:1025500081B0DFF8C8140A6802430A6009680840BD
:102560000090009801B070472DE9F84F88B000F056
:1025700087FA00F00DFA142200F044FADFF89C64A8
:10258000306840F6EB34DFF8988440F004003060A7
:102590003168DFF890544FF4806A01F0040105912E
:1025A0000598316841F080013160326802F08002A4
:1025B00005920598316841F001013160326802F0FE
:1025C000010205920598316841F0020131603268DC
:1025D00002F0020205920598316841F0080131606D
:1025E0003268214602F00802059205980022404612
:1025F00000F07EFB00220C21284600F079FB00222F
:102600004FF4E041DFF8200400F072FB01224FF4A8
:102610008071284600F06CFB42F2140000F0AAF929
:10262000404600F059FA00940121019100220292E3
:1026300003926946404600F04FFA042100910021C0
:10264000112202910391019200F08BF94FF48471F1
:1026500000F096F900F086F94FF4886000F08AF9EE
:10266000DFF8C40300F038FA4FF4E04100F088F9D5
:10267000DFF8B40300F030FA002101910291CDF8A7
:1026800000A000F06EF9202200F0BCF9DFF89CB346
:10269000DFF89C030BF15401886300220BF1540016
:1026A000C26304210BF15402116400200BF15401A8
:1026B000C8644FF000420BF15400826404210BF116
:1026C000540211650BF1A800002141600172002243
:1026D00001210270C16002748261C2610BF1CC04FD
:1026E00022704FF00051A162E2626260A260E2607B
:1026F0000BF18C072275384600F09CFB08B100F006
:10270000B3F901210191CB480421009000220491EA
:102710000292059200F02AF908B100F0A5F9C64826
:1027200000F023F908B100F09FF9C44800F01DF94A
:1027300008B100F099F90C2200F064F9C048E06497
:102740004FF480012165002060650721A165E065E7
:10275000002121664FF080606066A166E166216716
:1027600061670721A1670BF5A6744FF080402060D8
:1027700000216160A1606161A161E161216261622A
:10278000A1620BF58C77E162384601F09BF808B145
:1027900000F06AF900204FF0805100900191029002
:1027A0006946384601F042F908B100F05DF90BF2D4
:1027B000B467A44838604FF4E139C7F804900021A9
:1027C000B960F96039610C207861B961F9613962E9
:1027D0007962B962384601F04DF908B100F044F968
:1027E0000021384601F0BEFB08B100F03DF90021A0
:1027F000384601F0C2FB08B100F036F9384601F066
:1028000093FB08B100F030F91822002101A801F073
:1028100007FC706940F40000706170694FF4004675
:1028200000F40000009000980220FFF791FE0120C4
:10283000FFF78EFE00F08EF87B4801F0FBFB00F006
:1028400089F8284601F0F6FB7F48016800227F4B9B
:102850001A707F48C0F800A07E49E1650622226612
:10286000022060670021A167E1670BF5E670016057
:102870004160C16081600BF5D47001F055FC08B176
:1028800000F0F2F80BF5E965734828600C20002190
:102890006861C5F80490A960E9602961A961E961EE
:1028A00029626962A962284601F0E4F808B100F0E3
:1028B000DBF80021284601F055FB08B100F0D4F800
:1028C0000021284601F059FB08B100F0CDF8284658
:1028D00001F02AFB08B100F0C7F86048CBF800000F
:1028E0000021CBF80410CBF80C10CBF8101004200A
:1028F0008BF81C10CBF8180001210BF1240041606B
:10290000002202700272027755490262C26282613D
:10291000CBF808204A610A70584600F08BFA08B1DB
:1029200000F0A2F8002001F0D3FF08B100F09CF8FD
:1029300001F0DAFF08B100F097F80121404600F0FD
:10294000DCF94FF4FA7001F0DFFF0121404600F09E
:10295000D4F9F2E70196032102910022059201A920
:1029600070476946284600F0B7B800906946384677
:1029700000F054BC0021009001910291694670471B
:102980000091002101220291039101926946704752
:1029900080B59EB06022002106A801F041FB1822FC
:1029A00000F030F84FF48030FFF7F4FA08B100F08F
:1029B0005BF8322106914FF480724FF480510992F6
:1029C0001191102201210A920D910E924FF0804137
:1029D00000220F91149206A8FEF770FC08B100F0D7
:1029E00043F81F21009100220021019202910392DD
:1029F000049105926846FFF722F808B100F034F818
:102A00001FB000BD0021684601F00ABB00681549EF
:102A1000884208BF01F08CBF704700008C0C024652
:102A2000000802420000024200040242100000209E
:102A3000001002460000044A002000B60100008099
:102A400000300140004C00400CED00E06AE400E082
:102A50000CE100E00000044200500040008002420F
:102A6000640000200010004072B6FEE77047704717
:102A70007047704770477047704770477047000055
:102A800080B51048016841F4807101600320FFF7B0
:102A90001AFDFFF703F90C4A13680C490C4A03F0BE
:102AA0000F03C95CC84010600F20FFF72DFA08B172
:102AB000012002BD01F044FF002002BD054800686E
:102AC000000C704700200240200C0246C054000851
:102AD0000C000020004004E02DE9F04F4FF0000909
:102AE0000746DFF82822DFF8283280460D46B1E09D
:102AF0003E6804F0030404FA0CF40EEA060644EA05
:102B0000060C2EE000F0EEF86FEA040E6C68022C62
:102B100018BF122CECD14FEAD90408F1200B4FEA70
:102B200089065BF824A006F01C064FF00F0B0BFA89
:102B300006FB2AEA0B0A95F810B00BF00F0B0BFA04
:102B400006F646EA0A0608F1200A4AF824603C68BC
:102B50002E7906F003060EEA040406FA0CF646EA9D
:102B6000040CC7F800C000F0BDF86FEA040E6C68F2
:102B7000012C18BF022C03D0112C18BF122C12D11B
:102B8000BC68EE680EEA040406FA0CF63443BC6036
:102B90007C6801268E40B4436E68C6F3001606FAC0
:102BA00001F1214379606968032909D0F968AC68AB
:102BB0000EEA010104FA0CF444EA010CC7F80CC057
:102BC0006968C90044D54FEA9901DFF848E15EF829
:102BD00021C04FEAC904504E04F0180E06EA9826A8
:102BE0000F2404FA0EF42CEA040406FA0EF646EA60
:102BF000040CDFF820E14EF821C0D3F800C06C6867
:102C0000C14301EA0C0CE40248BF40EA0C0CC3F8D3
:102C100000C0D3F804C06C6801EA0C0CA40248BFE1
:102C200040EA0C0CC3F804C0D2F804C06C6801EA96
:102C30000C0CA40348BF40EA0C0CC2F804C0D2F844
:102C400000C06C6801EA0C01E40348BF0143116055
:102C500009F10109296831FA09F041D0012000FA8F
:102C600009F414EA01004946F2D02C4EB0457FF435
:102C700049AF374639680F264FF00B0A21EA0404A2
:102C8000297901F0010101FA09F141EA040CC7F8C0
:102C900000C0234F234957F8397051F839104FEAD3
:102CA000D10C07F1200E5EF82CE08C0004F01C041F
:102CB000A6402EEA06060AFA04F444EA060E07F1D4
:102CC000200444F82CE0D7F800C04FEA410E03245A
:102CD00004FA0EF402262CEA040406FA0EF63EE785
:102CE000BDE8F08F4FEA410C032404FA0CF470475E
:102CF0000AB18161704781627047426901EA02034B
:102D0000914341EA034181617047000080200246FF
:102D100000200246602002467F7F2F00000002460E
:102D2000F4530008F8530008603000EB810001689C
:102D3000520002F0784201F0E0610A431A43026057
:102D40007047603000EB8100006800F07840704709
:102D5000603000EB8100016821F0806105E06030A7
:102D600000EB8100016821F000710A4302607047A6
:102D700010B5436901F0040107248C40A34302FA13
:102D800001F11943416110BD10B5DFF8484401F06D
:102D90001F03A0420FD08909303001F00C0109183F
:102DA0000C681F2098408443C2F3846000FA03F348
:102DB00023430B6010BDDFF82004016814020EBF2E
:102DC000C2F3846292FAA2F2B2FA82F20F249C4019
:102DD000A14302FA03F30B43036010BDDFF8F433A1
:102DE00030B598421CD00C020EBFC1F3846491FA36
:102DF000A1F3B3FA83F4C1F340656FF00903C90D81
:102E000003FB0544143001F0040109180B6804EBBE
:102E100044040720A0408343A2401A430A6030BD07
:102E2000DFF8B803036823EA012302EA012119430A
:102E3000016030BD2DE9FC474FF000090400C84691
:102E400008BF012000F0BB8104F17406706828B946
:102E5000204601F083FD0020B06030702168886852
:102E6000800004D58A68DFF8780302408A60216810
:102E70008868C00017D48A68DFF86803024042F00F
:102E800080528A60DFF860130868DFF86023B0FBC7
:102E9000F2F2521C5200009202E00098401E009094
:102EA00000980028F9D1D4F800C0DCF80800C00070
:102EB00009D471684FF0010941F010017160B068E8
:102EC00040F00100B060DCF808007168CA0600D468
:102ED000400700F16D817168DFF81423DFF8F432E8
:102EE00021F4807141F002017160DCF80800DFF824
:102EF0000413C00729D4DFF800E39C4514D094459F
:102F000006BFDFF8F8020068086810F001001CD165
:102F1000944508BFDFF8E8E2DEF800C060682CF4F2
:102F2000701540EA050C0EE0A068D1F804C0401E00
:102F3000800860F3830CC1F804C06068DEF800C04C
:102F4000800C60F3954CCEF800C0D4F800E004F19A
:102F500024059E4509D028782F6A47EA4030A768A3
:102F60000743287A47EA00471CE0286A002814BF74
:102F70004FF4805CC4462769002F4CBF27F0004700
:102F80004FF4001795F800A0207F4FEA4A3A4AEA2A
:102F900080304CEA000C606940EA0C000743287F4F
:102FA00047EA4007287A04F1540C012847D19E458E
:102FB00004D0E868401E47EA404742E028780028ED
:102FC0003AD147F48037286920B100F4E0703843E3
:102FD0006F690743D1F804E0DFF8280200EA0E0029
:102FE00047EA000EC1F804E0206A38B1D4F800E0E6
:102FF000DEF844A040EA0A00CEF84400DCF81800ED
:1030000038B1D4F800E0DEF844A040EA0A00CEF877
:103010004400D4F800E04FF0010A9E4573D0DEF87A
:103020000810DEF8080049075ED400075CD4964516
:10303000A96918BF490016E000F0C3F8C3E79E4530
:10304000C1D0286920B100F4787038436F69074314
:10305000DEF80CA0DFF8B00100EA0A0047EA000A37
:10306000CEF80CA0D5E7DEF80C20237FDFF89C011A
:10307000024042EA83321143CEF80C10E06848B1B6
:1030800021680A6F920B40EA82300867086F40F0AF
:10309000004008679CF80000012819D12268DFF879
:1030A00070011369DCF804100340DCF8080043EAFF
:1030B0000143DCF80C100343DCF810000B43DCF890
:1030C0001410034343EA910343F00103136104E046
:1030D0002068016949084900016121680A69E86AB4
:1030E00022F0704202430A61206901282068016BC6
:1030F00005D16A680909521E42EA011101E0090975
:103100000901016344E09CF8000001280CD1DCF8BF
:103110000430DCF80820DCF80C0013430343DCF82F
:103120001400184340F001088A68DFF8E800024004
:1031300048EA0208C1F808806A6A20680021FFF79F
:1031400017FEAA6A20686FF0FB01FFF711FE2069E5
:1031500028B92068816A61F00F0181620FE0B0F543
:10316000001F0CD121686FF00F02886A6B68581E2F
:10317000800000F01F008240706902438A6221686B
:10318000DFF89400CA680240BA4205D10021B1605C
:1031900070686AF3010010E07068D14620F0020008
:1031A00040F010007060B06840F00100B06005E0D1
:1031B00070684FF0010940F0100070604846BDE8AB
:1031C000F687706840F020007060B06840F0010041
:1031D000B0607047001002462810024614100246E4
:1031E000C0FFFF5FC0FFFF7F0C000020400D030009
:1031F000008002420810024608130246088002427C
:10320000088302420D80DEFF13C0F0FFFCBFFFFF0A
:103210001EF800FC02FCFFF7F3FF3F832DE9F84F97
:1032200004460020009094F874200025012A08BF6D
:10323000022000F0D882012084F87400206882689F
:10324000520700F1C5820E46DFF81016D6F800B01E
:10325000DFF81876DFF81886DFF818964FF0010AC5
:10326000884200F06D815FEA0B220EBFCBF38461D0
:103270009BFAABF1B1FA81F1C36901F01F010AFABF
:1032800001F11943C161326871682068FFF77CFD64
:10329000206882688168520739D4090737D4B26838
:1032A0003168FFF79BFD2068C268316904292FD07F
:1032B000736900F0D5FA3268FFF736FD216832698C
:1032C000F069603101EB82010B6823F080731843D1
:1032D0000860B07E012810D1707E00280CBF4FF02E
:1032E0000072002231692068FFF739FD707E0128E5
:1032F00014BF00224FF0806205E03169206800228F
:10330000FFF72DFD002231692068FFF721FD7AE0EB
:103310000021FFF716FD00022946206804D1FFF7BF
:1033200010FDC0F3846003E0FFF70BFD00F065FAC9
:10333000326811020EBFC2F3846192FAA2F1B1FAAF
:1033400081F1884204D1206800230021FFF7ECFCC2
:1033500020680121FFF7F5FC00025146206804D1E6
:10336000FFF7EFFCC0F3846003E0FFF7EAFC00F036
:1033700044FA326811020EBFC2F3846192FAA2F1DC
:10338000B1FA81F1884204D1206800230121FFF7BE
:10339000CBFC00F041FA000204D100F03DFAC0F38A
:1033A000846003E000F038FA00F027FA3268110276
:1033B0000EBFC2F3846192FAA2F1B1FA81F18842A0
:1033C00004D1206800230221FFF7AEFC00F020FAB0
:1033D000000204D100F01CFAC0F3846003E000F0A6
:1033E00017FA00F00AFA326811020EBFC2F38461C4
:1033F00092FAA2F1B1FA81F1884204D12068002347
:103400000321FFF791FC21688868C0076AD4F2683D
:103410003368D1F8C0C0DFF860E402F0180223F08E
:103420007F402EFA02F22CEA000013400343C1F859
:10343000C030F068DFF8441488421AD130680102C5
:103440000EBFC0F3846190FAA0F1B1FA81F1491C7A
:1034500001F01F010A2903D200F0EAF9014304E058
:1034600000F0E6F9084340F00071B2682068FFF709
:10347000B5FC3368002B35D522684A450CBF404661
:103480003846016801F0E0710CBFDFF8F403DFF8A3
:10349000F403006810F0010040F09A81DFF8E803BF
:1034A000834222D10B021DD44A451CD0DFF8AC0365
:1034B000824217D13A68DFF8D40322F0E072114358
:1034C00041F4000139600168DFF8C423B1FBF2F276
:1034D000521C52000092009800281EBF0098401E07
:1034E0000090F8D17BE14746E4E7DFF8A803834288
:1034F00010D1CB01F6D44A450AD0DFF860038242EE
:10350000F0D13A6822F0E072114341F0807113E08B
:103510004746F6E7DFF8800383420ED14B020CD416
:103520004A450BD0DFF83403824206D13A6822F0D4
:10353000E072114341F48001396050E14746F5E7FC
:10354000FFF7BCFAB0F5805F21D13068DFF84C138B
:10355000884208BFDFF848B319D0DFF84813884223
:1035600008BFDFF844B312D0DFF84013884208BF29
:10357000DFF83CB30BD0DFF83CB3584508BFDFF8A9
:1035800038B304D0DFF83413884218BF834670681C
:103590002169DFF82C23022800F0C4809BFAABF3EA
:1035A000B3FA83F30093B1F1004F18BF914210D1E9
:1035B00020685FEA0B210CBFCBF384611946826A55
:1035C00001F01F010AFA01F141EA020AC0F828A03D
:1035D00034E05FEA0B210CBFCBF38461194604F1A0
:1035E0007402536900F01F000F228240934301FAD6
:1035F00000F0184304F1740148617168A06A8908F9
:10360000491C88421AD3FFF759FAB0F5805F10D8E9
:103610005FEA0B200CBFCBF384600098142808D31A
:103620005FEA0B200CBFCBF38460009809380AFADC
:1036300000FB716820685A46FFF7A6FBB268206855
:103640005946FFF7CBFB3068002840F1C88021685D
:10365000494518BFB846D8F80090DFF8402290429C
:1036600009F0E0791DD15FEA09204ED4D8F80010A6
:10367000DFF81802DFF8182221F0E07149EA0101B1
:1036800041F40001C8F800100168B1FBF2F25200E9
:103690000092009800281EBF0098401E0090F8D1AC
:1036A00033E0DFF80022904207D15FEAC9102CD442
:1036B00000F09CF841F080710AE0DFF8DC219042D4
:1036C00009D15FEA492020D400F090F841F480014C
:1036D000C8F8001019E0DFF8D421904215D15FEA54
:1036E000492012D4DFF8742191420ED1386820F0BD
:1036F000E07049EA000040F480003860FFF7DEF92E
:10370000B0F5805F01D800F08BF8FFF7D7F9B0F57E
:10371000005F02BF3068DFF8A41188425FD15FEA22
:10372000492051E0B1F1004F18BF91420BD1206800
:103730004FEA9B6202F01F02816A0AFA02F221EA52
:10374000020AC0F828A03068002848D522684A45F7
:1037500008BF4746D7F80080DFF82C11884208F0F0
:10376000E07803D13A6828F4000006E0DFF824117D
:10377000884207D13A6828F0807022F0E072024354
:103780003A6015E0DFF8102128F48001904202D160
:1037900000F038F80CE0DFF81421904208D100F076
:1037A00031F8FFF78BF9B0F5805F01D800F038F8F9
:1037B000FFF784F9B0F5005F02BF3068DFF8FC1056
:1037C00088420CD15FEA482009D400F029F806E0CD
:1037D00004F174004168012541F02001416000209E
:1037E00084F874002846BDE8F28F0000D8F8001075
:1037F00021F0E07149EA0101704790FAA0F0B0FAB7
:1038000080F07047386820F0E070014339607047FD
:1038100020680321FFF795BA20680221FFF791BACB
:103820002068D0F8D01041F00101C0F8D0107047E6
:10383000010204D1C0F38461C0F3846004E090FA13
:10384000A0F0B0FA80F10846491C401C890600F03F
:103850001F0001F0F8410AFA00F07047001002461C
:103860009208520002F00602934070470813024685
:103870000883024200800242FFFF0F000000FFFFAA
:103880000880024208100246000008CE0C0000200A
:10389000400D0300000004CA01000080002000B6B3
:1038A000000040DA004000BA000080DE001000B2E4
:1038B00001000081000020D6000010D2000020D7B7
:1038C0001000008038B504002CD00020A0622068D1
:1038D000DFF84021DFF84011904218BF884202D142
:1038E000E368102B1ED2E568E36B0835ED085B0931
:1038F0005B1C6B43904218BF884201D1082B11D842
:10390000DFF8181188421CBFDFF81421904207D05D
:10391000DFF8101188421CBFDFF80C21904203D160
:10392000102B01D9012032BD04F18805687820B937
:1039300000212970204601F064F802206870206898
:10394000016849084900016020688268A06902F4A2
:10395000F812B0F1806F12D16068B0F5800F02D11B
:10396000A06B60B905E0002804BFA06BB0F1805FD8
:1039700005D12168086840F480500B4618606068E3
:1039800041020AD5E068072807D321680B68206D3B
:1039900023F4807303430B6004E02068016821F482
:1039A00080710160E169A06A236801430A43E16B09
:1039B000E0680A4302439A60626B606AA16B236805
:1039C0000243A0690A432169024360690A43216AEC
:1039D000024360680A43E16C0243A0680A43A16C99
:1039E0000243A06D0A43E16D0243206E0A43024385
:1039F000DA606068410206D52168CA68606D22F00D
:103A000000420243CA600021696001206870002002
:103A100032BD00000020004600200056003001406A
:103A200000300150003800400038005030B500F13F
:103A300088025378012B1AD11478012C01D102206D
:103A400030BD13700224547003681D686D086D004A
:103A50001D604C680B68896804F470240068234377
:103A60000B43C361012353700020107030BD01204F
:103A700030BD000038B5040009D004F18405696840
:103A800009B900F01EF800F021F8012801D1012049
:103A900032BDA06A08B100F02AF800F00AF821F05F
:103AA0002A01FFE7816000F01BF8BDE8324000F01A
:103AB00065B92068416821F49041416020688168BF
:103AC000704700202870204600F0D6BF242169608E
:103AD00020680268520852000260204600F028B8B0
:103AE0002068016841F001010160204670472046CE
:103AF00000F0E1B8284600F088B941F4807142E84E
:103B00000010002870472846C3E1286850E8001FCD
:103B100002467047286800F1080151E8001F00F1D3
:103B200008034908490043E80010002870470000D6
:103B3000F8B504462268DFF8C80300251368A168B9
:103B4000034020690B4361690343E0690B4303436E
:103B500013605168E068DFF8AC3321F44051014351
:103B60005160A66949499A421EBF8A42206A0643AB
:103B70009768DFF8940307403E439660D66A606A10
:103B8000DFF88873360940EA0616BA42C2F82C609C
:103B90003FA61DD10120E26900214FF6F077B2F572
:103BA000004F57D1FCF700FF002865D000F07CF8EB
:103BB0004A0802EB4002B2FBF1F0A0F11001B94259
:103BC00059D20740C0F3420007432068C76053E062
:103BD000DFF83C73BA4208BF0220DCD0DFF83403C0
:103BE000824208BF0420D6D0DFF82C03824208BFEF
:103BF0000820D0D0DFF82403824208BF1020CAD0AA
:103C00009A420EBF202000208A42C4D10021FCF736
:103C1000CBFE002830D0616A36F81120B0FBF2F6F6
:103C2000626802EB42018E4224BF1303B34222D3E7
:103C30005008002110EB0620DFF8E47251EB16610A
:103C4000002301F007F8A0F54076BE4213D22168A8
:103C5000C86011E0FCF7A8FE70B100F025F800EB99
:103C60005100B0FBF1F0A0F11001B94203D222687B
:103C700080B2D06000E0012504F16800012100233A
:103C800041800180C36003612846F2BD00240056D4
:103C9000010002000400060008000A000C001000E9
:103CA0002000400080000001626A616836F812302E
:103CB000B0FBF3F0704790F82810CA0706D50268E9
:103CC0005368C16A23F400330B43536090F8281003
:103CD0008A0706D502685368016B23F480330B43CF
:103CE000536090F828104A0706D502685368416B64
:103CF00023F480230B43536090F828100A0706D55D
:103D000002685368816B23F400430B43536090F8BF
:103D10002810CA0606D502689368C16B23F4805345
:103D20000B43936090F828108A0606D502689368C2
:103D3000016C23F400530B43936090F828104A065B
:103D400010D502685368416C23F480130B43536011
:103D5000436CB3F5801F05D15368816C23F4C00315
:103D60000B43536090F828100A0606D501684A688C
:103D7000C06C22F4002202434A607047F8B5054641
:103D800005F184040020E060FDF792FA06462868F9
:103D90006FF07E4701680A0711D50097334600226D
:103DA0004FF40011FFF7A6FE48B1FFF7AEFE21F079
:103DB0008001FFF7A4FEF8D12020606017E028689A
:103DC00001684A0717D50097334600224FF4800157
:103DD000FFF790FE78B1FFF798FE21F49071FFF79E
:103DE0008EFEF8D1FFF796FEFCD12020A0600021C6
:103DF00021700320F2BD202060602021A1600020FE
:103E0000E866002129672070F2BD2DE9F0410546E2
:103E10000E4690461F46069C2868C1693140B14253
:103E20000CBF01200020404531D114F1010FF3D027
:103E3000FDF73EFAC01B844200D314B90320BDE84D
:103E4000F081286801684A07E6D5C169080704D4EB
:103E50002968C8690105DFD50CE02A6808201062CE
:103E6000FFF751FE05F184000821C16000220270B5
:103E70000120E4E729684FF400600862FFF743FE81
:103E800005F184002021C16000220270D6E70020E5
:103E9000D5E710B500F011F8FCD100F018F8FCD10E
:103EA000C16E012902D100F020F8FCD12021C0F818
:103EB0008C100022C266426710BD016851E8002FD5
:103EC0000B4622F4907243E80021002970470168F4
:103ED00001F1080252E8002F01F10804DFF8441054
:103EE0000A4044E8002100297047026852E8002F88
:103EF000036822F0100243E8002100297047000007
:103F0000F369FFCF00240046FFF4FF1100380140A1
:103F10000044004000480040004C00400050004079
:103F200000FD0F00FEFFFFEF10B500F184010A78DD
:103F3000012A01D1022010BD01220A7024234B6006
:103F40000268136814686408640014600022426602
:103F5000006823F00053202203604A6000230B70A6
:103F6000002010BD70B500F01FF801D1022070BD17
:103F700000F020F822F0604209E070B500F014F87B
:103F800001D1022070BD00F015F822F060621143EB
:103F90008160204600F01CF8206820210022066085
:103FA00069602A70002070BD044604F184052878F9
:103FB000012870470120287024226A602068066862
:103FC0000268520852000260206882687047000050
:103FD00030B5416E11B90121012214E0016800BF22
:103FE0000FF22C040CA38A688968520E02F00702B3
:103FF000490F655CA45C595C9A5CED00E40095FB9C
:10400000F1F194FBF2F268304180028030BD000093
:104010000101010307010000080402040801010175
:1040200010B5044610460A460146204600F096FEAA
:10403000204610BD2DE9F041024608680F2390FA92
:10404000A0F0B0FA80F468E0000A90FAA0F0576A95
:10405000B0FA80F0800003FA00FE27EA0E070CFA9F
:1040600000F040EA070CC2F824C04EE00120A04056
:10407000284051D090FAA0F5B5FA85F77D000326C7
:10408000D1F804C0AE40F643BCF1010F18BFBCF13B
:10409000020F19D1D1F808C0D2F808E006EA0E0ED6
:1040A0000CFA05FC4CEA0E0CC2F808C0D1F800C0AE
:1040B000D2F804E0D1F80C802EEA0C0E08FB0CFCC0
:1040C0004CEA0E0CC2F804C0D1F810C0D2F80CE0D3
:1040D00006EA0E0E0CFA05FC4CEA0E0CC2F80CC0F7
:1040E000D1F804C0BCF1020F0FD1D1F814C0082FD1
:1040F000AAD2106ABF0003FA07FE20EA0E000CFAEB
:1041000007F747EA000CC2F820C0486817683E402D
:1041100000FA05F535431560641C0D6835FA04F0A6
:10412000A4D1BDE8F081000070B58AB004004DD084
:10413000266804F2BC45687820B900212970204621
:1041400000F018FD03206870F16B48045CBF00218B
:10415000E160206800F0CDFE83B000F04FF80EBCA7
:10416000206800F02FFE00282ED1206800210026B4
:1041700000F0C5FE002124200BE000FB01F201232A
:1041800022443C325370117051830023491C00F0CB
:104190002FF862689142F0D300210AE000FB01F29F
:1041A0000023224402F51F721170491C537000F065
:1041B0001FF862689142F1D383B000F01FF80EBC83
:1041C000206800F0C8FE18B10220687001200DE0E0
:1041D00084F8380001216970606A012804BF204614
:1041E00001F0DAF8206801F034F800200AB070BD60
:1041F00016719360D6601361C9B27047211D68467D
:10420000342201F0DDB82DE9F84F86B00546286864
:104210000290019001F05CF8002840F0408300F02B
:1042200045FB002800F03B83019805F2F44200F5BD
:10423000006003908168C1F30D20906000F036FBB0
:10424000800704D52868416901F00201416100F04E
:104250002DFBC00633D52868816921F010018161EA
:10426000029805F51F71046A242004F00F024243EE
:10427000C4F343408E1802280FD147F6F070044271
:1042800018D0F1680298C4F30A1200F0BFFFF0687A
:10429000C4F30A110844F06007E006280AD1029826
:1042A000082205F2C44100F0B1FF7169C4F30A109D
:1042B000411871612868816941F01001816100F045
:1042C000F5FA000340F1C680286800242E4600F06D
:1042D000D3FF05004FF40049DFF8C8B55EE0002CBD
:1042E00004BFD6F88C02002809D106F2C44200218E
:1042F000184600F0FDFF02E008B120208860E1B21E
:10430000304601F069F838071ED50821C8F80810B2
:104310003068D0F840A000EB441000F530608168B0
:10432000DA4503D3090448BFC0F80890304601F0CD
:1043300054F8DA4508D3F068012805D1306806F250
:10434000C442012100F0D4FFF80644BF1021C8F890
:104350000810B80715D502994869010604D50398D5
:10436000416841F4806141600098C178012905D11C
:104370000022C270E1B2304601F030F80220C8F8E5
:104380000800B80644BF2021C8F80810B80444BF8C
:104390004FF40051C8F80810641C6D0859D0E807A4
:1043A000FAD53068E1B200F075FF07460198242184
:1043B000614300EB441000F5306806F51F700144BE
:1043C0000091F8079FD50121C8F80810336803EB66
:1043D0004411D3F840C001F530618A68D6F80CE08A
:1043E00002F02000BEF1010F28D1130704D5DC45EF
:1043F00089D312042AD486E710B12020886082E78E
:1044000012F0280FFBD1DC4501D312041ED4009812
:1044100000F10C0250690969C1F31201401A906061
:10442000002C0AD1506820B906F2C442012130683C
:104430005FE7106891680144116060E7DFF868E4A5
:10444000F4457FF44CAF12047FF556AFC1F80890E5
:1044500059E7354600F02AFA400340F1B280286857
:10446000002400F010FF35E0D7F808A0401A82457C
:1044700088BF82460AF103004FEA900BE8681FFAF2
:104480008AF3E2B2C0B200907168484600F0ACFE18
:104490007068F168504470608A44C6F80CA009EB5B
:1044A000441000F51060816989B2594505D3B068A0
:1044B000F168814201D20028D6D1F068B168884203
:1044C00005D309F50067796B059801407963049875
:1044D000641C400804900498002872D0C107F6D5E7
:1044E0002868E1B200F0E1FE074624206043012184
:1044F00005EB0008019808F1440600EB441000F5B4
:10450000106904F00F008140C9430591F90720D5D7
:104510000398416B0598039A014001205163C9F843
:104520000800E968012910D1D8F848003168002C4A
:104530000144C8F8481004BFE86C002805D1286879
:1045400005F2C442012100F0D3FEE1B2284600F09A
:1045500046FF380744BF0821C9F80810F80644BFD1
:104560001021C9F80810780644BF4021C9F8081086
:10457000B80711D50298214600F090FD08F13C00E3
:10458000C178012905D10022C270E1B2284600F0AD
:1045900027FF0220C9F80800380698D5F168B068EE
:1045A000D5F8009008F13C07884290D3D7F808B0BE
:1045B000401A834588BF83460BF103004FEA900BF6
:1045C0006DE72868019C00F052FE002804F50064A5
:1045D00017D5616805F2F440490849006160017827
:1045E000012906D1002202700021284600F0F9FEC0
:1045F00002E0284600F0F6FE2868416901F000411B
:10460000416100F053F900050AD5A168C80744BF0D
:10461000284600F0E8FE2868416901F40061416124
:10462000286805F2F44400F022FE000115D5286840
:10463000416901F000614161207858B90121217080
:104640002868416DC1F3830060600121284600F0B5
:10465000C8FE02E0284600F0C6FE2868039E00F06F
:1046600006FEC00454D57168490849007160286885
:10467000102100F013FD00214FF67F32019818E061
:1046800000EB4113491C03F51067BA60D7F800C06E
:1046900003F530632CF4001CC7F800C09A601F6853
:1046A00027F400171F60D3F800C04CF0006CC3F86B
:1046B00000C06B689942E3D30190F06940F00110AB
:1046C000F061286B50B1D6F8840040F00B00C6F8BA
:1046D0008400706C40F00B00706409E0706940F475
:1046E000005040F02B007061306940F00B003061E9
:1046F000306805F2C44220F4FE603060E968286842
:10470000C9B200F0F5FD2868416901F480514161AA
:1047100000F0CCF8800416D5286800F0DDFD28688C
:1047200000F004FD2861FDF731FB01462A69286885
:10473000D2B200F077FB284600F056FE28684169A7
:1047400001F40051416100F0B1F8000707D5284697
:1047500000F04BFE2868416901F0080141612868BA
:1047600005F27F2700F083FD000617D502994FF070
:104770000108886920F0800088610CE0242000FB9B
:1047800008F0395C012904D15FFA88F1284600F06D
:1047900090F808F1010868688045EFD300F086F8CA
:1047A000C00225D54FF001094FF02408019F16E003
:1047B00007EB491008FB09F100F510600068294477
:1047C0003F314A78012A08D1002806D50A7049F0FD
:1047D0008001C9B2284600F06CF809F10109686847
:1047E0008145E5D301972868416901F48011416151
:1047F00000F05CF8800237D5012324220298019949
:1048000000E05B1C6F68BB4229D201EB431702FB3F
:1048100003FE07F5306CDCF80070AE440EF27F2C1E
:104820009CF80180B8F1010FEBD1002FE9D594F885
:1048300008E007F480370EF0010E7745E1D101273B
:104840008CF80070D0F818C04CF0800CC0F818C07C
:1048500047693F06D5D4706840F4007070602868DE
:10486000416901F40011416100F020F8400007D5D2
:10487000284600F0BBFD2868416901F08041416194
:1048800000F014F840070AD529684C68600744BF57
:10489000284600F0ACFD286841680C43446007B02E
:1048A000BDE8F08F0B30544F0A31544F286800F0A8
:1048B000DEBC01F00F0324225343C21809064CBF8B
:1048C00002F13C0102F51F71006800F03DBC0000E0
:1048D00010B500F010F801D5012010BD136823F0C9
:1048E00004031943116010BD0648016841F001013D
:1048F000016000207047034A136801460020DC076E
:10490000704700000004034038B50446FCF7D0FCB3
:10491000054614F1010F02D0044908780419FCF788
:10492000C7FC401BA042FAD331BD00BF00000020ED
:1049300002494A68087882184A60704700000020DF
:1049400081B0DFF8E002016841F004010160006815
:1049500000F004000090009801B07047F8B5B8B0BE
:1049600000F084F800F001F92068DFF8BC22DFF8DD
:10497000BC42DFF8BC524FF48041904210D100F0AD
:1049800037F808B1FEF770F8286840F480602860B6
:10499000296801F48061009100F023F8062112E0FB
:1049A000A44A90421BD100F023F808B1FEF75CF84E
:1049B000A86840F02000A860A86800F020000090DF
:1049C00000F00FF8012102F002020092009801911C
:1049D00003220292039701A92046FEF77DF839B021
:1049E000F0BD0098296841F0020129602A687047EB
:1049F0004FF400460027CDE90667309106A8FBF783
:104A00001BBC10B5B8B000F031F800F0AEF820686B
:104A10008949884228D14FF4000200234FF48011C5
:104A2000CDE90623339100F091F808B1FEF71CF8A8
:104A30007F48816941F480518161816901F480512D
:104A4000009100990268E02142F0010202600068D2
:104A5000022200F0010000900098019100210391D2
:104A60000491052100F0D7F838B010BD0446142297
:104A7000002101A8FFF7D4BA10B5B8B0044614223B
:104A800000216846FFF7CCFA00F06FF820686C4907
:104A9000674C88421ED108220023CDE906231D93CE
:104AA00000F054F808B1FDF7DFFF206940F4002062
:104AB0002061206900F4002005900598216841F0EC
:104AC000010121602268032102F0010200F041F897
:104AD0005A4837E05B49884236D110220023CDE99D
:104AE00006231E9300F032F808B1FDF7BDFF2069E0
:104AF00040F480102061206900F480100590059832
:104B0000216841F004012160226802F0040205924C
:104B10000598216841F00801216022684FF4805116
:104B200002F0080200F015F84748FDF7D5FF002213
:104B30000420022102920392009001910822049223
:104B400069464248FDF7C8FF38B010BD06A8FBF71C
:104B500073BB0592059800910021029103910821F1
:104B600002220491019269467047C822002106A8DA
:104B7000FFF756BA10B5B8B0FFF778FFFFF7F5FFAB
:104B800020683349884244D14FF480120023CDE994
:104B900006232E93FFF7DAFF08B1FDF765FF244CDB
:104BA0002068022240F001002060216801F001012C
:104BB000009100984FF4C05101910021039104919C
:104BC0000A2100F028F8206840F480402060216825
:104BD00001F4804100910098A16848070FD4A168B2
:104BE00041F00401A160A06800F00400009000986A
:104BF000FDF712FAA06820F00400A06001E0FDF7C4
:104C00000BFA002200214920FDF76AFC4920FDF73C
:104C100085FC38B010BD0591029201A90748FDF747
:104C20005BBF0000940C0246008002420004024276
:104C30008C0C024600100246003001400000024287
:104C4000004C00400050004000080242000C0242AC
:104C500000000442D3BBD9B1B2F5803F5BD2022A37
:104C60001ED98C46B1FBF2F102FB11C31B0443EACF
:104C70001043B3FBF2FC02FB1C3380B240EA034357
:104C8000B3FBF2F002FB103240EA0C400023704705
:104C9000022A05D98446B0FBF2F002FB10C270472D
:104CA0004AB105D100F0010249085FEA30007047BF
:104CB00000220023704700F09BBB0B000200002184
:104CC00000207047F7D3002200237047904271EB19
:104CD000030CF2D370B5B1FA81F4B3FA83F52C1B4F
:104CE000A340C4F1200532FA05F63343A2405FF039
:104CF0000046E64002E05B085FEA3202841A71EB8C
:104D0000030524BF204629467641F4D302000B0058
:104D10003000002170BD70B5B1FA81F4B2FA82F5AD
:104D2000C4F120046419B4F12006DAD3B2405FF074
:104D30000044F440002502E052085FEA3303C61A3B
:104D400071EB020E24BF3046714664416D41F3D3CE
:104D500002000B002000290070BD000062F30F224A
:104D600062F31F42401810F0030308D0C91A1FD382
:104D7000DB0748BF00F8012D28BF20F8022D1300E3
:104D800030B414461546103928BF20E93C00FAD843
:104D9000490728BF20E90C0048BF40F8042D8900CE
:104DA00028BF20F8022D48BF00F8012D30BC704705
:104DB000C91818BF00F8012DCB0728BF00F8012D36
:104DC000704700000FB4C168002241F04001C1608B
:104DD0000092DFF86015009A521C0092009A8A42F5
:104DE00013D20369002BF6D500230093026942F029
:104DF00001020261009A521C0092009A8A4204D277
:104E00000369DA07F6D4002200E003220A99002998
:104E1000816B0CBF41F4803121F4803181631046F5
:104E200004B0704710B5022A58D1DFF80C2552188B
:104E3000DFF808359A4238BF4FF4705150D3DFF88D
:104E400000255218DFF8FC349A4238BF4FF4605105
:104E500046D3DFF8F4245218DFF8F0349A4238BF12
:104E60004FF450513CD3DFF8E8245218DFF8E43413
:104E70009A4238BF4FF4405132D3DFF8DC24521845
:104E8000DFF8D8349A4238BF4FF4305128D3DFF8D6
:104E9000D0245218DFF8CC349A4238BF4FF4205156
:104EA0001ED3DFF8C4245218DFF8C0349A4215D359
:104EB000DFF8BC446418DFF8BC24944238BF4FF4D8
:104EC00000510DD3DFF8B0245118DFF8B034994207
:104ED0002CBF4FF4C0514FF4E05101E04FF410519A
:104EE000C26822F47052C260C2681143C1600020DF
:104EF00010BD81684908490081600020704738B5BD
:104F00000446E0680025012920F0C040E0600FD190
:104F1000E06840F00050E0600120FFF7F5FC6069B8
:104F20006D1CC10701D4322DF6D3322D11D10EE004
:104F300069B9E06840F08040E0600120FFF7E4FCE0
:104F400060696D1CC107F0D5322DF6D3EDE7012065
:104F500032BD002032BD0EB42DE9F04306460446B2
:104F60004FF000080021002004EB8102491CC2F828
:104F700004010F29F8D3119D06F5006785B97868FB
:104F800040F002007860A06B20F40010A06321685C
:104F900041F040012160206840F08000206003E083
:104FA000A06B40F40010A063002206F560631A6055
:104FB0000321204600F0B5F81021204600F06EF8DD
:104FC00008B14FF00108204600F08AF808B14FF010
:104FD00001080020386100217961F8614FF67F33C4
:104FE0004FF0904C4FF0006E3246814605E00026AF
:104FF0000E60C1F810908B60401C079988420FD258
:1050000002EB401101F510610E68002EEFD500286B
:1050100006BF02F51066C6F800E0C1F800C0E8E778
:10502000002005E000260E60C1F810908B60401C47
:10503000079988420FD202EB401101F530610E68EA
:10504000002EEFD5002806BF02F53066C6F800E056
:10505000C1F800C0E8E73869002120F480703861A9
:10506000A1616FF080406061099800F089F9DFF874
:1050700020030143A1610D9818B1A06940F0080018
:10508000A061012D05D1A06940F0804040F00400EE
:10509000A0614046BDE8F0035DF810FB18B50022A2
:1050A0000092DFF89022009B5B1C0093009B9342D0
:1050B00012D20469002CF6D500248901009441F035
:1050C000200101610099491C00910099914203D28D
:1050D00003699906F6D401E0032012BD002012BD39
:1050E00081B000210091DFF84C12009A521C00920E
:1050F000009A8A4210D20369002BF6D50023009350
:1051000010220261009A521C0092009A8A4203D235
:105110000369DA06F6D401E0032000E0002001B0C4
:10512000704700F50060026811438FE000F50060F1
:10513000806810F0060006D0022818BF062801D1AA
:10514000022070470F20704778B5002200920B783C
:105150004D7800EB431442F21173012D1DD104F57B
:1051600010642568002D37D5256845F00065256059
:105170000C7800EB441404F51064256845F0804574
:10518000256000F02BF826D20D7800EB451606F5C9
:1051900010663468002CF4D41EE004F530642668F0
:1051A000002E19D5266846F0006626600C7800EBC4
:1051B000441404F53064256845F08045256000F00E
:1051C0000DF808D20D7800EB451606F53066346808
:1051D000002CF4D400E00122104672BD009C641C37
:1051E0000094009C9C427047B8B5059C64B9DB1CD8
:1051F00007E000EB023751F8045B641C07F58057A9
:105200003D60B4EB930FF4D30020B2BD38B59308E2
:1052100002F00302002400F5805003E00568641CDE
:1052200041F8045B9C42F9D313000DD000686C4632
:10523000002320600098DC00521EE0405B1C95B209
:1052400001F8010B002DF5D1084632BD01600020A8
:10525000704700F560610A6800F5006092089200EE
:105260000A60416841F00201416000207047014638
:10527000486989690840704700F500618869C96913
:105280000840000C704700F500618869C969084052
:1052900080B27047024602EB411002F5006200F551
:1052A00030608068516908407047024602F500632B
:1052B00002EB4112186901F00F015B6B02F51062FD
:1052C0009268CB40DB0103F0800318431040704725
:1052D000406900F00100704700F510610A6800F5B0
:1052E0000060D20AD2020A60416841F48071BBE7D3
:1052F00010B5036CDFF89C4000F53060A34202D388
:105300000368002B14D4002303610469012944F4C9
:1053100000240461036943F018030361036943F047
:10532000C043036104D14261016841F08021016002
:10533000002010BD410D0300405327FF00350C0035
:10534000401E1BFF40420F0000DC0BFF804F12008D
:10535000808CF9FE20D6130060B6E5FE60E31600EF
:1053600000D3CEFE40771B00C05BB3FEC09121008E
:1053700000CA91FE20753800E05459FEE09C4100BF
:1053800018B9A06940F01000A061A1697047000041
:1053900000383C800B30544F016800F2F440012289
:1053A0000023C2600370886940F000608861486D26
:1053B00040F0805040F00300486500207047000036
:1053C0004AB1000011F8013B521E00F8013B1CBF1E
:1053D00011F8013BF8E77047704770477047704716
:1053E0007047704770477047704770477047704705
:1053F000704700000000024201000000000002426D
:105400000300000000000242060000000004024207
:1054100001000000000402420A00000000080242ED
:1054200002000000000C02420D000000000C0242CD
:1054300002000000000802420A00000000040242CC
:1054400000000000000802420C00000000040242BC
:1054500003000000000402420400000000100242A9
:105460000000000000100242020000000010024292
:10547000030000000E4801680022002341F470017F
:1054800001600C4901200860CA610B624A620B6826
:10549000094803400B608A620B680020074A23F426
:1054A00080230B6008654FF00061116070470000B9
:1054B00088ED00E0000C0246FFFFF6EA08ED00E090
:1054C00000000000000000000102030406070809B4
:1054D000006CDC0200366E010024F400001BB700F3
:1054E00000093D0080841E00504B140040420F0014
:1054F00000E02E000070170000A00F0000B80B00A5
:10550000801A0600400D030088070200A0860100F3
:1055100030B4002512E050F8042BD30744BF4A44AE
:10552000521E091F042942F8045BFAD213468C0765
:1055300044BF15809B1CC90748BF1D7050F8041B51
:105540000029E8D130BC7047FEE7FEE7FEE7FEE742
:10555000FEE770477047704770470348FCF704BE8A
:105560000248FEF750BE0000EC070020B801002002
:105570007047000010B5074979441831064C7C4447
:10558000163404E00A68081D114488470146A14208
:10559000F8D110BD2C0000004C0000004EF68851E0
:1055A000CEF20001086840F470000860BFF34F8F2E
:1055B000BFF36F8F4FF00170E1EE100A70470000EB
:1055C00051FFFFFF2808000010000020000000002D
:1055D000B7BCFFFF100000008000000000000020AA
:1055E0000000000000F00DF8002801D0FFF7C2FF16
:1055F000AFF300800020AFF30080FCF7B5FF00F0B0
:1056000002F80120704700F001B800000746384654
:1056100000F002F8FBE7000080B5AFF30080024A1B
:1056200011001820ABBEFBE726000200054801462A
:1056300003B4684680F30988AFF30080FFF7AEFF3C
:10564000FFF7D0FFA5EDF5FE014880470148004770
:10565000755400082D5600080100000000000000ED
:105660001000000000093D000000000001020304DA
:10567000FFF7FEBFFFF7FEBFFFF7FEBFFFF7FEBF5E
:10568000FFF7FEBFFFF7FEBFFFF7FEBFFFF7FEBF4E
:10569000FFF7FEBFFFF7FEBFFFF7FEBFFFF7FEBF3E
:1056A000FFF7FEBFFFF7FEBFFFF7FEBFFFF7FEBF2E
:1056B000FFF7FEBFFFF7FEBFFFF7FEBFFFF7FEBF1E
:1056C000FFF7FEBFFFF7FEBFFFF7FEBFFFF7FEBF0E
:1056D000FFF7FEBFFFF7FEBFFFF7FEBFFFF7FEBFFE
:1056E000FFF7FEBFFFF7FEBFFFF7FEBFFFF7FEBFEE
:1056F000FFF7FEBFFFF7FEBFFFF7FEBFFFF7FEBFDE
:10570000FFF7FEBFFFF7FEBFFFF7FEBFFFF7FEBFCD
:10571000FFF7FEBFFFF7FEBFFFF7FEBFFFF7FEBFBD
:10572000FFF7FEBFFFF7FEBFFFF7FEBFFFF7FEBFAD
:10573000FFF7FEBFFFF7FEBFFFF7FEBFFFF7FEBF9D
:10574000FFF7FEBFFFF7FEBFFFF7FEBFFFF7FEBF8D
:10575000FFF7FEBFFFF7FEBFFFF7FEBFFFF7FEBF7D
:10576000FFF7FEBFFFF7FEBFFFF7FEBFFFF7FEBF6D
:10577000FFF7FEBFFFF7FEBFFFF7FEBFFFF7FEBF5D
:10578000FFF7FEBFFFF7FEBFFFF7FEBFFFF7FEBF4D
:10579000FFF7FEBFFFF7FEBFFFF7FEBFFFF7FEBF3D
:1057A000FFF7FEBFFFF7FEBFFFF7FEBFFFF7FEBF2D
:1057B000FFF7FEBFFFF7FEBFFFF7FEBFFFF7FEBF1D
:1057C000FFF7FEBFFFF7FEBFFFF7FEBFFFF7FEBF0D
:1057D000FFF7FEBFFFF7FEBFFFF7FEBFFFF7FEBFFD
:1057E000FFF7FEBFFFF7FEBFFFF7FEBFFFF7FEBFED
:1057F000FFF7FEBFFFF7FEBFFFF7FEBFFFF7FEBFDD
:10580000FFF7FEBFFFF7FEBFFFF7FEBFFFF7FEBFCC
:10581000FFF7FEBFFFF7FEBFFFF7FEBFFFF7FEBFBC
:10582000FFF7FEBFFFF7FEBFFFF7FEBFFFF7FEBFAC
:10583000FFF7FEBFFFF7FEBFFFF7FEBFFFF7FEBF9C
:10584000FFF7FEBFFFF7FEBFFFF7FEBFFFF7FEBF8C
:10585000FFF7FEBFFFF7FEBFFFF7FEBFFFF7FEBF7C
:040000050800562D6C
:00000001FF
